{
  "address": "0x46b144aa1Aadd875b4D7492580827F786F100820",
  "abi": [
    {
      "inputs": [
        {
          "internalType": "address",
          "name": "_owner",
          "type": "address"
        }
      ],
      "stateMutability": "nonpayable",
      "type": "constructor"
    },
    {
      "inputs": [],
      "name": "enter",
      "outputs": [],
      "stateMutability": "payable",
      "type": "function"
    },
    {
      "inputs": [],
      "name": "getParticipants",
      "outputs": [
        {
          "internalType": "address payable[]",
          "name": "",
          "type": "address[]"
        }
      ],
      "stateMutability": "view",
      "type": "function"
    },
    {
      "inputs": [],
      "name": "manager",
      "outputs": [
        {
          "internalType": "address",
          "name": "",
          "type": "address"
        }
      ],
      "stateMutability": "view",
      "type": "function"
    },
    {
      "inputs": [
        {
          "internalType": "uint256",
          "name": "",
          "type": "uint256"
        }
      ],
      "name": "participants",
      "outputs": [
        {
          "internalType": "address payable",
          "name": "",
          "type": "address"
        }
      ],
      "stateMutability": "view",
      "type": "function"
    },
    {
      "inputs": [],
      "name": "pickWinner",
      "outputs": [],
      "stateMutability": "nonpayable",
      "type": "function"
    },
    {
      "inputs": [],
      "name": "winner",
      "outputs": [
        {
          "internalType": "address",
          "name": "",
          "type": "address"
        }
      ],
      "stateMutability": "view",
      "type": "function"
    }
  ],
  "transactionHash": "0x96126c38ff0a5b82e3117a9968bd2e6540df1b828c55b20cb950e47e49133018",
  "args": [
    "0xe9F7be0F8dA11d2dAfad2F8a5F267Aa7ea1CaCD3"
  ],
  "numDeployments": 1,
  "solcInputHash": "b197dbd56e285e52f6ca6569fbbc87b4",
  "bytecode": "0x608060405234801561001057600080fd5b506040516105d73803806105d783398101604081905261002f91610054565b600080546001600160a01b0319166001600160a01b0392909216919091179055610084565b60006020828403121561006657600080fd5b81516001600160a01b038116811461007d57600080fd5b9392505050565b610544806100936000396000f3fe6080604052600436106100555760003560e01c806335c1d3491461005a578063481c6a75146100975780635aa68ac0146100b75780635d495aea146100d9578063dfbf53ae146100f0578063e97dcb6214610110575b600080fd5b34801561006657600080fd5b5061007a610075366004610420565b610118565b6040516001600160a01b0390911681526020015b60405180910390f35b3480156100a357600080fd5b5060005461007a906001600160a01b031681565b3480156100c357600080fd5b506100cc610142565b60405161008e9190610439565b3480156100e557600080fd5b506100ee6101a4565b005b3480156100fc57600080fd5b5060025461007a906001600160a01b031681565b6100ee6102cb565b6001818154811061012857600080fd5b6000918252602090912001546001600160a01b0316905081565b6060600180548060200260200160405190810160405280929190818152602001828054801561019a57602002820191906000526020600020905b81546001600160a01b0316815260019091019060200180831161017c575b5050505050905090565b600154600311156101fc5760405162461bcd60e51b815260206004820152601760248201527f4e6f7420656e6f756768207061727469636970616e747300000000000000000060448201526064015b60405180910390fd5b60015460009061020a610370565b6102149190610486565b905060018181548110610229576102296104a8565b600091825260209091200154600280546001600160a01b0319166001600160a01b039092169190911790556001805482908110610268576102686104a8565b60009182526020822001546040516001600160a01b03909116914780156108fc02929091818181858888f193505050501580156102a9573d6000803e3d6000fd5b5060408051600081526020810191829052516102c7916001916103a6565b5050565b66038d7ea4c6800034101561032d5760405162461bcd60e51b815260206004820152602260248201527f456e7472792072657175697265732065786163746c7920302e3030312045746860448201526132b960f11b60648201526084016101f3565b6001805480820182556000919091527fb10e2d527612073b26eecdfd717e6a320cf44b4afac2b0732d9fcbe2b7fa0cf60180546001600160a01b03191633179055565b600044426001604051602001610388939291906104be565b6040516020818303038152906040528051906020012060001c905090565b8280548282559060005260206000209081019282156103fb579160200282015b828111156103fb57825182546001600160a01b0319166001600160a01b039091161782556020909201916001909101906103c6565b5061040792915061040b565b5090565b5b80821115610407576000815560010161040c565b60006020828403121561043257600080fd5b5035919050565b6020808252825182820181905260009190848201906040850190845b8181101561047a5783516001600160a01b031683529284019291840191600101610455565b50909695505050505050565b6000826104a357634e487b7160e01b600052601260045260246000fd5b500690565b634e487b7160e01b600052603260045260246000fd5b838152600060208481840152604083018454856000528260002060005b828110156105005781546001600160a01b0316845292840192600191820191016104db565b50919897505050505050505056fea264697066735822122037c4b8f40be8cadaf80f206ccb06b1fe040133067e13063cf650596b4b3c608864736f6c63430008110033",
  "devdoc": {
    "author": "BuidlGuidl",
    "kind": "dev",
    "methods": {},
    "version": 1
  },
  "userdoc": {
    "kind": "user",
    "methods": {},
    "notice": "A smart contract that allows changing a state variable of the contract and tracking the changes It also allows the owner to withdraw the Ether in the contract",
    "version": 1
  },
  "storageLayout": {
    "storage": [
      {
        "astId": 5,
        "contract": "contracts/YourContract.sol:YourContract",
        "label": "manager",
        "offset": 0,
        "slot": "0",
        "type": "t_address"
      },
      {
        "astId": 8,
        "contract": "contracts/YourContract.sol:YourContract",
        "label": "participants",
        "offset": 0,
        "slot": "1",
        "type": "t_array(t_address_payable)dyn_storage"
      },
      {
        "astId": 10,
        "contract": "contracts/YourContract.sol:YourContract",
        "label": "winner",
        "offset": 0,
        "slot": "2",
        "type": "t_address"
      }
    ],
    "types": {
      "t_address": {
        "encoding": "inplace",
        "label": "address",
        "numberOfBytes": "20"
      },
      "t_address_payable": {
        "encoding": "inplace",
        "label": "address payable",
        "numberOfBytes": "20"
      },
      "t_array(t_address_payable)dyn_storage": {
        "base": "t_address_payable",
        "encoding": "dynamic_array",
        "label": "address payable[]",
        "numberOfBytes": "32"
      }
    }
  }
}